{
  "_format": "hh-sol-artifact-1",
  "contractName": "FixedRateExchange",
  "sourceName": "contracts/pools/fixedRate/FixedRateExchange.sol",
  "abi": [
    {
      "inputs": [
        {
          "internalType": "address",
          "name": "_router",
          "type": "address"
        }
      ],
      "stateMutability": "nonpayable",
      "type": "constructor"
    },
    {
      "anonymous": false,
      "inputs": [
        {
          "indexed": true,
          "internalType": "bytes32",
          "name": "exchangeId",
          "type": "bytes32"
        },
        {
          "indexed": false,
          "internalType": "address",
          "name": "to",
          "type": "address"
        },
        {
          "indexed": false,
          "internalType": "address",
          "name": "token",
          "type": "address"
        },
        {
          "indexed": false,
          "internalType": "uint256",
          "name": "amount",
          "type": "uint256"
        }
      ],
      "name": "ConsumeMarketFee",
      "type": "event"
    },
    {
      "anonymous": false,
      "inputs": [
        {
          "indexed": true,
          "internalType": "bytes32",
          "name": "exchangeId",
          "type": "bytes32"
        },
        {
          "indexed": true,
          "internalType": "address",
          "name": "exchangeOwner",
          "type": "address"
        }
      ],
      "name": "ExchangeActivated",
      "type": "event"
    },
    {
      "anonymous": false,
      "inputs": [
        {
          "indexed": true,
          "internalType": "bytes32",
          "name": "exchangeId",
          "type": "bytes32"
        },
        {
          "indexed": true,
          "internalType": "address",
          "name": "allowedSwapper",
          "type": "address"
        }
      ],
      "name": "ExchangeAllowedSwapperChanged",
      "type": "event"
    },
    {
      "anonymous": false,
      "inputs": [
        {
          "indexed": true,
          "internalType": "bytes32",
          "name": "exchangeId",
          "type": "bytes32"
        },
        {
          "indexed": true,
          "internalType": "address",
          "name": "baseToken",
          "type": "address"
        },
        {
          "indexed": true,
          "internalType": "address",
          "name": "datatoken",
          "type": "address"
        },
        {
          "indexed": false,
          "internalType": "address",
          "name": "exchangeOwner",
          "type": "address"
        },
        {
          "indexed": false,
          "internalType": "uint256",
          "name": "fixedRate",
          "type": "uint256"
        }
      ],
      "name": "ExchangeCreated",
      "type": "event"
    },
    {
      "anonymous": false,
      "inputs": [
        {
          "indexed": true,
          "internalType": "bytes32",
          "name": "exchangeId",
          "type": "bytes32"
        },
        {
          "indexed": true,
          "internalType": "address",
          "name": "exchangeOwner",
          "type": "address"
        }
      ],
      "name": "ExchangeDeactivated",
      "type": "event"
    },
    {
      "anonymous": false,
      "inputs": [
        {
          "indexed": true,
          "internalType": "bytes32",
          "name": "exchangeId",
          "type": "bytes32"
        },
        {
          "indexed": true,
          "internalType": "address",
          "name": "exchangeOwner",
          "type": "address"
        },
        {
          "indexed": false,
          "internalType": "bool",
          "name": "withMint",
          "type": "bool"
        }
      ],
      "name": "ExchangeMintStateChanged",
      "type": "event"
    },
    {
      "anonymous": false,
      "inputs": [
        {
          "indexed": true,
          "internalType": "bytes32",
          "name": "exchangeId",
          "type": "bytes32"
        },
        {
          "indexed": true,
          "internalType": "address",
          "name": "exchangeOwner",
          "type": "address"
        },
        {
          "indexed": false,
          "internalType": "uint256",
          "name": "newRate",
          "type": "uint256"
        }
      ],
      "name": "ExchangeRateChanged",
      "type": "event"
    },
    {
      "anonymous": false,
      "inputs": [
        {
          "indexed": true,
          "internalType": "bytes32",
          "name": "exchangeId",
          "type": "bytes32"
        },
        {
          "indexed": true,
          "internalType": "address",
          "name": "feeToken",
          "type": "address"
        },
        {
          "indexed": false,
          "internalType": "uint256",
          "name": "feeAmount",
          "type": "uint256"
        }
      ],
      "name": "MarketFeeCollected",
      "type": "event"
    },
    {
      "anonymous": false,
      "inputs": [
        {
          "indexed": true,
          "internalType": "bytes32",
          "name": "exchangeId",
          "type": "bytes32"
        },
        {
          "indexed": true,
          "internalType": "address",
          "name": "feeToken",
          "type": "address"
        },
        {
          "indexed": false,
          "internalType": "uint256",
          "name": "feeAmount",
          "type": "uint256"
        }
      ],
      "name": "OceanFeeCollected",
      "type": "event"
    },
    {
      "anonymous": false,
      "inputs": [
        {
          "indexed": true,
          "internalType": "bytes32",
          "name": "exchangeId",
          "type": "bytes32"
        },
        {
          "indexed": false,
          "internalType": "address",
          "name": "caller",
          "type": "address"
        },
        {
          "indexed": false,
          "internalType": "address",
          "name": "newMarketCollector",
          "type": "address"
        },
        {
          "indexed": false,
          "internalType": "uint256",
          "name": "swapFee",
          "type": "uint256"
        }
      ],
      "name": "PublishMarketFeeChanged",
      "type": "event"
    },
    {
      "anonymous": false,
      "inputs": [
        {
          "indexed": true,
          "internalType": "bytes32",
          "name": "exchangeId",
          "type": "bytes32"
        },
        {
          "indexed": false,
          "internalType": "uint256",
          "name": "oceanFeeAmount",
          "type": "uint256"
        },
        {
          "indexed": false,
          "internalType": "uint256",
          "name": "marketFeeAmount",
          "type": "uint256"
        },
        {
          "indexed": false,
          "internalType": "uint256",
          "name": "consumeMarketFeeAmount",
          "type": "uint256"
        },
        {
          "indexed": false,
          "internalType": "address",
          "name": "tokenFeeAddress",
          "type": "address"
        }
      ],
      "name": "SWAP_FEES",
      "type": "event"
    },
    {
      "anonymous": false,
      "inputs": [
        {
          "indexed": true,
          "internalType": "bytes32",
          "name": "exchangeId",
          "type": "bytes32"
        },
        {
          "indexed": true,
          "internalType": "address",
          "name": "by",
          "type": "address"
        },
        {
          "indexed": false,
          "internalType": "uint256",
          "name": "baseTokenSwappedAmount",
          "type": "uint256"
        },
        {
          "indexed": false,
          "internalType": "uint256",
          "name": "datatokenSwappedAmount",
          "type": "uint256"
        },
        {
          "indexed": false,
          "internalType": "address",
          "name": "tokenOutAddress",
          "type": "address"
        },
        {
          "indexed": false,
          "internalType": "uint256",
          "name": "marketFeeAmount",
          "type": "uint256"
        },
        {
          "indexed": false,
          "internalType": "uint256",
          "name": "oceanFeeAmount",
          "type": "uint256"
        },
        {
          "indexed": false,
          "internalType": "uint256",
          "name": "consumeMarketFeeAmount",
          "type": "uint256"
        }
      ],
      "name": "Swapped",
      "type": "event"
    },
    {
      "anonymous": false,
      "inputs": [
        {
          "indexed": true,
          "internalType": "bytes32",
          "name": "exchangeId",
          "type": "bytes32"
        },
        {
          "indexed": true,
          "internalType": "address",
          "name": "to",
          "type": "address"
        },
        {
          "indexed": true,
          "internalType": "address",
          "name": "token",
          "type": "address"
        },
        {
          "indexed": false,
          "internalType": "uint256",
          "name": "amount",
          "type": "uint256"
        }
      ],
      "name": "TokenCollected",
      "type": "event"
    },
    {
      "inputs": [],
      "name": "MAX_FEE",
      "outputs": [
        {
          "internalType": "uint256",
          "name": "",
          "type": "uint256"
        }
      ],
      "stateMutability": "view",
      "type": "function"
    },
    {
      "inputs": [],
      "name": "MIN_FEE",
      "outputs": [
        {
          "internalType": "uint256",
          "name": "",
          "type": "uint256"
        }
      ],
      "stateMutability": "view",
      "type": "function"
    },
    {
      "inputs": [],
      "name": "MIN_RATE",
      "outputs": [
        {
          "internalType": "uint256",
          "name": "",
          "type": "uint256"
        }
      ],
      "stateMutability": "view",
      "type": "function"
    },
    {
      "inputs": [
        {
          "internalType": "bytes32",
          "name": "exchangeId",
          "type": "bytes32"
        },
        {
          "internalType": "uint256",
          "name": "datatokenAmount",
          "type": "uint256"
        },
        {
          "internalType": "uint256",
          "name": "maxBaseTokenAmount",
          "type": "uint256"
        },
        {
          "internalType": "address",
          "name": "consumeMarketAddress",
          "type": "address"
        },
        {
          "internalType": "uint256",
          "name": "consumeMarketSwapFeeAmount",
          "type": "uint256"
        }
      ],
      "name": "buyDT",
      "outputs": [],
      "stateMutability": "nonpayable",
      "type": "function"
    },
    {
      "inputs": [
        {
          "internalType": "bytes32",
          "name": "exchangeId",
          "type": "bytes32"
        },
        {
          "internalType": "uint256",
          "name": "datatokenAmount",
          "type": "uint256"
        },
        {
          "internalType": "uint256",
          "name": "consumeMarketSwapFeeAmount",
          "type": "uint256"
        }
      ],
      "name": "calcBaseInGivenOutDT",
      "outputs": [
        {
          "internalType": "uint256",
          "name": "baseTokenAmount",
          "type": "uint256"
        },
        {
          "internalType": "uint256",
          "name": "oceanFeeAmount",
          "type": "uint256"
        },
        {
          "internalType": "uint256",
          "name": "publishMarketFeeAmount",
          "type": "uint256"
        },
        {
          "internalType": "uint256",
          "name": "consumeMarketFeeAmount",
          "type": "uint256"
        }
      ],
      "stateMutability": "view",
      "type": "function"
    },
    {
      "inputs": [
        {
          "internalType": "bytes32",
          "name": "exchangeId",
          "type": "bytes32"
        },
        {
          "internalType": "uint256",
          "name": "datatokenAmount",
          "type": "uint256"
        },
        {
          "internalType": "uint256",
          "name": "consumeMarketSwapFeeAmount",
          "type": "uint256"
        }
      ],
      "name": "calcBaseOutGivenInDT",
      "outputs": [
        {
          "internalType": "uint256",
          "name": "baseTokenAmount",
          "type": "uint256"
        },
        {
          "internalType": "uint256",
          "name": "oceanFeeAmount",
          "type": "uint256"
        },
        {
          "internalType": "uint256",
          "name": "publishMarketFeeAmount",
          "type": "uint256"
        },
        {
          "internalType": "uint256",
          "name": "consumeMarketFeeAmount",
          "type": "uint256"
        }
      ],
      "stateMutability": "view",
      "type": "function"
    },
    {
      "inputs": [
        {
          "internalType": "bytes32",
          "name": "exchangeId",
          "type": "bytes32"
        },
        {
          "internalType": "uint256",
          "name": "amount",
          "type": "uint256"
        }
      ],
      "name": "collectBT",
      "outputs": [],
      "stateMutability": "nonpayable",
      "type": "function"
    },
    {
      "inputs": [
        {
          "internalType": "bytes32",
          "name": "exchangeId",
          "type": "bytes32"
        },
        {
          "internalType": "uint256",
          "name": "amount",
          "type": "uint256"
        }
      ],
      "name": "collectDT",
      "outputs": [],
      "stateMutability": "nonpayable",
      "type": "function"
    },
    {
      "inputs": [
        {
          "internalType": "bytes32",
          "name": "exchangeId",
          "type": "bytes32"
        }
      ],
      "name": "collectMarketFee",
      "outputs": [],
      "stateMutability": "nonpayable",
      "type": "function"
    },
    {
      "inputs": [
        {
          "internalType": "bytes32[]",
          "name": "exchangeId",
          "type": "bytes32[]"
        }
      ],
      "name": "collectMarketFeeBatch",
      "outputs": [],
      "stateMutability": "nonpayable",
      "type": "function"
    },
    {
      "inputs": [
        {
          "internalType": "bytes32",
          "name": "exchangeId",
          "type": "bytes32"
        }
      ],
      "name": "collectOceanFee",
      "outputs": [],
      "stateMutability": "nonpayable",
      "type": "function"
    },
    {
      "inputs": [
        {
          "internalType": "bytes32[]",
          "name": "exchangeId",
          "type": "bytes32[]"
        }
      ],
      "name": "collectOceanFeeBatch",
      "outputs": [],
      "stateMutability": "nonpayable",
      "type": "function"
    },
    {
      "inputs": [
        {
          "internalType": "address",
          "name": "datatoken",
          "type": "address"
        },
        {
          "internalType": "address[]",
          "name": "addresses",
          "type": "address[]"
        },
        {
          "internalType": "uint256[]",
          "name": "uints",
          "type": "uint256[]"
        }
      ],
      "name": "createWithDecimals",
      "outputs": [
        {
          "internalType": "bytes32",
          "name": "exchangeId",
          "type": "bytes32"
        }
      ],
      "stateMutability": "nonpayable",
      "type": "function"
    },
    {
      "inputs": [
        {
          "internalType": "address",
          "name": "baseToken",
          "type": "address"
        },
        {
          "internalType": "address",
          "name": "datatoken",
          "type": "address"
        }
      ],
      "name": "generateExchangeId",
      "outputs": [
        {
          "internalType": "bytes32",
          "name": "",
          "type": "bytes32"
        }
      ],
      "stateMutability": "pure",
      "type": "function"
    },
    {
      "inputs": [
        {
          "internalType": "bytes32",
          "name": "exchangeId",
          "type": "bytes32"
        }
      ],
      "name": "getAllowedSwapper",
      "outputs": [
        {
          "internalType": "address",
          "name": "allowedSwapper",
          "type": "address"
        }
      ],
      "stateMutability": "view",
      "type": "function"
    },
    {
      "inputs": [
        {
          "internalType": "bytes32",
          "name": "exchangeId",
          "type": "bytes32"
        }
      ],
      "name": "getBTSupply",
      "outputs": [
        {
          "internalType": "uint256",
          "name": "supply",
          "type": "uint256"
        }
      ],
      "stateMutability": "view",
      "type": "function"
    },
    {
      "inputs": [
        {
          "internalType": "bytes32",
          "name": "exchangeId",
          "type": "bytes32"
        }
      ],
      "name": "getDTSupply",
      "outputs": [
        {
          "internalType": "uint256",
          "name": "supply",
          "type": "uint256"
        }
      ],
      "stateMutability": "view",
      "type": "function"
    },
    {
      "inputs": [
        {
          "internalType": "bytes32",
          "name": "exchangeId",
          "type": "bytes32"
        }
      ],
      "name": "getExchange",
      "outputs": [
        {
          "internalType": "address",
          "name": "exchangeOwner",
          "type": "address"
        },
        {
          "internalType": "address",
          "name": "datatoken",
          "type": "address"
        },
        {
          "internalType": "uint256",
          "name": "dtDecimals",
          "type": "uint256"
        },
        {
          "internalType": "address",
          "name": "baseToken",
          "type": "address"
        },
        {
          "internalType": "uint256",
          "name": "btDecimals",
          "type": "uint256"
        },
        {
          "internalType": "uint256",
          "name": "fixedRate",
          "type": "uint256"
        },
        {
          "internalType": "bool",
          "name": "active",
          "type": "bool"
        },
        {
          "internalType": "uint256",
          "name": "dtSupply",
          "type": "uint256"
        },
        {
          "internalType": "uint256",
          "name": "btSupply",
          "type": "uint256"
        },
        {
          "internalType": "uint256",
          "name": "dtBalance",
          "type": "uint256"
        },
        {
          "internalType": "uint256",
          "name": "btBalance",
          "type": "uint256"
        },
        {
          "internalType": "bool",
          "name": "withMint",
          "type": "bool"
        }
      ],
      "stateMutability": "view",
      "type": "function"
    },
    {
      "inputs": [],
      "name": "getExchanges",
      "outputs": [
        {
          "internalType": "bytes32[]",
          "name": "",
          "type": "bytes32[]"
        }
      ],
      "stateMutability": "view",
      "type": "function"
    },
    {
      "inputs": [
        {
          "internalType": "bytes32",
          "name": "exchangeId",
          "type": "bytes32"
        }
      ],
      "name": "getFeesInfo",
      "outputs": [
        {
          "internalType": "uint256",
          "name": "marketFee",
          "type": "uint256"
        },
        {
          "internalType": "address",
          "name": "marketFeeCollector",
          "type": "address"
        },
        {
          "internalType": "uint256",
          "name": "opcFee",
          "type": "uint256"
        },
        {
          "internalType": "uint256",
          "name": "marketFeeAvailable",
          "type": "uint256"
        },
        {
          "internalType": "uint256",
          "name": "oceanFeeAvailable",
          "type": "uint256"
        }
      ],
      "stateMutability": "view",
      "type": "function"
    },
    {
      "inputs": [],
      "name": "getId",
      "outputs": [
        {
          "internalType": "uint8",
          "name": "",
          "type": "uint8"
        }
      ],
      "stateMutability": "pure",
      "type": "function"
    },
    {
      "inputs": [
        {
          "internalType": "bytes32",
          "name": "exchangeId",
          "type": "bytes32"
        }
      ],
      "name": "getMarketFee",
      "outputs": [
        {
          "internalType": "uint256",
          "name": "",
          "type": "uint256"
        }
      ],
      "stateMutability": "view",
      "type": "function"
    },
    {
      "inputs": [],
      "name": "getNumberOfExchanges",
      "outputs": [
        {
          "internalType": "uint256",
          "name": "",
          "type": "uint256"
        }
      ],
      "stateMutability": "view",
      "type": "function"
    },
    {
      "inputs": [
        {
          "internalType": "address",
          "name": "baseTokenAddress",
          "type": "address"
        }
      ],
      "name": "getOPCFee",
      "outputs": [
        {
          "internalType": "uint256",
          "name": "",
          "type": "uint256"
        }
      ],
      "stateMutability": "view",
      "type": "function"
    },
    {
      "inputs": [
        {
          "internalType": "bytes32",
          "name": "exchangeId",
          "type": "bytes32"
        }
      ],
      "name": "getRate",
      "outputs": [
        {
          "internalType": "uint256",
          "name": "",
          "type": "uint256"
        }
      ],
      "stateMutability": "view",
      "type": "function"
    },
    {
      "inputs": [
        {
          "internalType": "bytes32",
          "name": "exchangeId",
          "type": "bytes32"
        }
      ],
      "name": "isActive",
      "outputs": [
        {
          "internalType": "bool",
          "name": "",
          "type": "bool"
        }
      ],
      "stateMutability": "view",
      "type": "function"
    },
    {
      "inputs": [
        {
          "internalType": "address",
          "name": "addr",
          "type": "address"
        }
      ],
      "name": "isContract",
      "outputs": [
        {
          "internalType": "bool",
          "name": "",
          "type": "bool"
        }
      ],
      "stateMutability": "view",
      "type": "function"
    },
    {
      "inputs": [],
      "name": "router",
      "outputs": [
        {
          "internalType": "address",
          "name": "",
          "type": "address"
        }
      ],
      "stateMutability": "view",
      "type": "function"
    },
    {
      "inputs": [
        {
          "internalType": "bytes32",
          "name": "exchangeId",
          "type": "bytes32"
        },
        {
          "internalType": "uint256",
          "name": "datatokenAmount",
          "type": "uint256"
        },
        {
          "internalType": "uint256",
          "name": "minBaseTokenAmount",
          "type": "uint256"
        },
        {
          "internalType": "address",
          "name": "consumeMarketAddress",
          "type": "address"
        },
        {
          "internalType": "uint256",
          "name": "consumeMarketSwapFeeAmount",
          "type": "uint256"
        }
      ],
      "name": "sellDT",
      "outputs": [],
      "stateMutability": "nonpayable",
      "type": "function"
    },
    {
      "inputs": [
        {
          "internalType": "bytes32",
          "name": "exchangeId",
          "type": "bytes32"
        },
        {
          "internalType": "address",
          "name": "newAllowedSwapper",
          "type": "address"
        }
      ],
      "name": "setAllowedSwapper",
      "outputs": [],
      "stateMutability": "nonpayable",
      "type": "function"
    },
    {
      "inputs": [
        {
          "internalType": "bytes32",
          "name": "exchangeId",
          "type": "bytes32"
        },
        {
          "internalType": "uint256",
          "name": "newRate",
          "type": "uint256"
        }
      ],
      "name": "setRate",
      "outputs": [],
      "stateMutability": "nonpayable",
      "type": "function"
    },
    {
      "inputs": [
        {
          "internalType": "bytes32",
          "name": "exchangeId",
          "type": "bytes32"
        }
      ],
      "name": "toggleExchangeState",
      "outputs": [],
      "stateMutability": "nonpayable",
      "type": "function"
    },
    {
      "inputs": [
        {
          "internalType": "bytes32",
          "name": "exchangeId",
          "type": "bytes32"
        },
        {
          "internalType": "bool",
          "name": "withMint",
          "type": "bool"
        }
      ],
      "name": "toggleMintState",
      "outputs": [],
      "stateMutability": "nonpayable",
      "type": "function"
    },
    {
      "inputs": [
        {
          "internalType": "bytes32",
          "name": "exchangeId",
          "type": "bytes32"
        },
        {
          "internalType": "uint256",
          "name": "_newMarketFee",
          "type": "uint256"
        }
      ],
      "name": "updateMarketFee",
      "outputs": [],
      "stateMutability": "nonpayable",
      "type": "function"
    },
    {
      "inputs": [
        {
          "internalType": "bytes32",
          "name": "exchangeId",
          "type": "bytes32"
        },
        {
          "internalType": "address",
          "name": "_newMarketCollector",
          "type": "address"
        }
      ],
      "name": "updateMarketFeeCollector",
      "outputs": [],
      "stateMutability": "nonpayable",
      "type": "function"
    }
  ],
  "bytecode": "0x60806040523480156200001157600080fd5b50604051620045cc380380620045cc8339810160408190526200003491620000ca565b60016000556001600160a01b038116620000a45760405162461bcd60e51b815260206004820152602760248201527f46697865645261746545786368616e67653a2057726f6e6720526f75746572206044820152666164647265737360c81b606482015260840160405180910390fd5b600180546001600160a01b0319166001600160a01b0392909216919091179055620000fc565b600060208284031215620000dd57600080fd5b81516001600160a01b0381168114620000f557600080fd5b9392505050565b6144c0806200010c6000396000f3fe608060405234801561001057600080fd5b50600436106102115760003560e01c806379dd283611610125578063bc063e1a116100ad578063d819bfef1161007c578063d819bfef14610638578063dd1bc96a14610644578063ed2fc85914610657578063f32f94761461066a578063f887ea401461067d57600080fd5b8063bc063e1a146105d0578063c2c0d1ab146105df578063c612e48a14610612578063c66274ea1461062557600080fd5b806388823872116100f4578063888238721461056c578063b32b56f91461057f578063b4241429146105a2578063b686bcaf146105aa578063b8421e2b146105bd57600080fd5b806379dd2836146104335780637c82ebe914610446578063855058dd1461045957806385fcbc2f1461055957600080fd5b80634c87087d116101a85780635d1ca631116101775780635d1ca631146103e357806360311e95146103f2578063680819eb1461040557806368c4b7e91461041857806376c7a3c71461042b57600080fd5b80634c87087d1461031c57806350d571d51461039a5780635acfedc7146103ad5780635c36901c146103c057600080fd5b806324cb477e116101e457806324cb477e146102be5780632d24deff146102d35780632e7e23b3146102e657806349b69e331461030957600080fd5b8063012c3275146102165780630b3b430d1461023c578063162790551461027f5780631e2e3a6b146102a9575b600080fd5b610229610224366004613cff565b610690565b6040519081526020015b60405180910390f35b61024f61024a366004613dd5565b611041565b604080519586526001600160a01b039094166020860152928401919091526060830152608082015260a001610233565b61029961028d366004613dee565b3b63ffffffff16151590565b6040519015158152602001610233565b6102b161114b565b6040516102339190613e0b565b6102d16102cc366004613dd5565b6111a3565b005b6102d16102e1366004613e4f565b6113c9565b6102296102f4366004613dd5565b60009081526002602052604090206008015490565b6102d1610317366004613e4f565b61141e565b61032f61032a366004613dd5565b611464565b604080516001600160a01b039d8e1681529b8d1660208d01528b0199909952999096166060890152608088019490945260a0870192909252151560c086015260e085015261010084015261012083015261014082019290925290151561016082015261018001610233565b6102d16103a8366004613ec4565b611506565b6102d16103bb366004613dd5565b611a27565b6102996103ce366004613dd5565b60009081526002602052604090205460ff1690565b60405160028152602001610233565b6102d1610400366004613f0d565b611a45565b6102d1610413366004613f3d565b611c2c565b6102d1610426366004613ec4565b611e2a565b61022961240d565b6102d1610441366004613f6d565b612424565b6102d1610454366004613f0d565b61262e565b610541610467366004613dd5565b60009081526002602081815260409283902083516101e081018552815460ff808216151583526001600160a01b03610100928390048116958401959095526001840154851696830196909652938201548316606082015260038201546080820152600482015460a0820152600582015460c0820152600682015460e0820152600782015484820152600882015461012082015260098201548316610140820152600a820154610160820152600b820154610180820152600c9091015493841615156101a0820152919092049091166101c090910181905290565b6040516001600160a01b039091168152602001610233565b610229610567366004613dd5565b612701565b6102d161057a366004613f3d565b612889565b61022961058d366004613dd5565b60009081526002602052604090206003015490565b600354610229565b6102d16105b8366004613dd5565b6129ee565b6102296105cb366004613dee565b6129ff565b6102296706f05b59d3b2000081565b6105f26105ed366004613f92565b612a74565b604080519485526020850193909352918301526060820152608001610233565b6102d1610620366004613f3d565b612c07565b610229610633366004613dd5565b612c23565b6102296402540be40081565b6105f2610652366004613f92565b612f35565b610229610665366004613fbe565b61309a565b6102d1610678366004613f3d565b6130d2565b600154610541906001600160a01b031681565b6001546000906001600160a01b031633146106f25760405162461bcd60e51b815260206004820152601e60248201527f46697865645261746545786368616e67653a206f6e6c7920726f75746572000060448201526064015b60405180910390fd5b60058251101561073b5760405162461bcd60e51b8152602060048201526014602482015273092dcecc2d8d2c840ead2dce8e640d8cadccee8d60631b60448201526064016106e9565b60048351101561078d5760405162461bcd60e51b815260206004820152601860248201527f496e76616c696420616464726573736573206c656e677468000000000000000060448201526064016106e9565b60006001600160a01b0316836000815181106107ab576107ab613fec565b60200260200101516001600160a01b031614156108265760405162461bcd60e51b815260206004820152603360248201527f46697865645261746545786368616e67653a20496e76616c69642062617365546044820152726f6b656e2c20207a65726f206164647265737360681b60648201526084016106e9565b6108518360008151811061083c5761083c613fec565b602002602001015163ffffffff903b16151590565b6108b55760405162461bcd60e51b815260206004820152602f60248201527f46697865645261746545786368616e67653a20496e76616c696420626173655460448201526e6f6b656e2c206c6f6f6b7320454f4160881b60648201526084016106e9565b6001600160a01b0384166109275760405162461bcd60e51b815260206004820152603360248201527f46697865645261746545786368616e67653a20496e76616c69642064617461746044820152726f6b656e2c20207a65726f206164647265737360681b60648201526084016106e9565b836001600160a01b03168360008151811061094457610944613fec565b60200260200101516001600160a01b031614156109c95760405162461bcd60e51b815260206004820152603760248201527f46697865645261746545786368616e67653a20496e76616c696420646174617460448201527f6f6b656e2c2020657175616c732062617365546f6b656e00000000000000000060648201526084016106e9565b6402540be400826002815181106109e2576109e2613fec565b60200260200101511015610a085760405162461bcd60e51b81526004016106e990614002565b610a2c83600081518110610a1e57610a1e613fec565b60200260200101518561309a565b60008181526002602052604090206003015490915015610aa25760405162461bcd60e51b815260206004820152602b60248201527f46697865645261746545786368616e67653a2045786368616e676520616c726560448201526a616479206578697374732160a81b60648201526084016106e9565b60006001905082600481518110610abb57610abb613fec565b602002602001015160001415610acf575060005b604051806101e0016040528060011515815260200185600181518110610af757610af7613fec565b60200260200101516001600160a01b03168152602001866001600160a01b0316815260200185600081518110610b2f57610b2f613fec565b60200260200101516001600160a01b0316815260200184600281518110610b5857610b58613fec565b6020026020010151815260200184600181518110610b7857610b78613fec565b6020026020010151815260200184600081518110610b9857610b98613fec565b60200260200101518152602001600081526020016000815260200184600381518110610bc657610bc6613fec565b6020026020010151815260200185600281518110610be657610be6613fec565b60200260200101516001600160a01b031681526020016000815260200160008152602001821515815260200185600381518110610c2557610c25613fec565b6020908102919091018101516001600160a01b039081169092526000858152600280835260409182902085518154948701518616610100908102610100600160a81b031992151583166001600160a81b031997881617178355938701516001830180549188166001600160a01b03199283161790556060880151938301805494881694821694909417909355608087015160038084019190915560a0880151600484015560c0880151600584015560e0880151600684015584880151600784015561012088015160088401556101408801516009840180549189169190951617909355610160870151600a830155610180870151600b8301556101a0870151600c90920180546101c090980151909616909302901515909216949092169390931792909217905583518491908110610d5f57610d5f613fec565b602002602001015160001480610da25750610d84612710670de0b6b3a7640000614066565b83600381518110610d9757610d97613fec565b602002602001015110155b610de05760405162461bcd60e51b815260206004820152600f60248201526e5377617046656520746f6f206c6f7760881b60448201526064016106e9565b6706f05b59d3b2000083600381518110610dfc57610dfc613fec565b60200260200101511115610e455760405162461bcd60e51b815260206004820152601060248201526f0a6eec2e08ccaca40e8dede40d0d2ced60831b60448201526064016106e9565b6003805460018101825560009182527fc2575a0e9e593c00f959f8c92f12db2869c3395a3b0502d05e2516446f71f85b0183905584516001600160a01b038716918691610e9457610e94613fec565b60200260200101516001600160a01b0316837feb7a353641f7d3cc54b497ef1553fdc292b64d9cc3be8587c23dfba01f310b1987600181518110610eda57610eda613fec565b602002602001015187600281518110610ef557610ef5613fec565b6020026020010151604051610f1f9291906001600160a01b03929092168252602082015260400190565b60405180910390a483600181518110610f3a57610f3a613fec565b60200260200101516001600160a01b0316827fc7344c45124818d1d3a4c24ccb9b86d8b88d3bd05209b2a42b494cb32a50352960405160405180910390a383600381518110610f8b57610f8b613fec565b60200260200101516001600160a01b0316827fcc1b4af8292e6b938f6743c78a62317c9a2d60e0d46b77776a027e53ce617c0c60405160405180910390a3817f1bf3af41af5ef4ea33bbeffb18acd246aae76d6f03bdb54916577c2e1ab03d523386600281518110610fff57610fff613fec565b60200260200101518660038151811061101a5761101a613fec565b602002602001015160405161103193929190614088565b60405180910390a2509392505050565b600081815260026020818152604080842081516101e081018352815460ff808216151583526001600160a01b036101009283900481168488015260018501548116958401959095528387015485166060840181905260038501546080850152600485015460a0850152600585015460c0850152600685015460e085015260078501548385015260088501546101208501819052600986015487166101408601819052600a870154610160870152600b870154610180870152600c9096015492831615156101a0860152929091049094166101c083015287875294909352929391829182919061112f906129ff565b9350806101600151925080610180015191505091939590929450565b6060600380548060200260200160405190810160405280929190818152602001828054801561119957602002820191906000526020600020905b815481526020019060010190808311611185575b5050505050905090565b600081815260026020526040908190206001015490516396fb3eaf60e01b815233600482015282916001600160a01b03169081906396fb3eaf90602401602060405180830381865afa1580156111fd573d6000803e3d6000fd5b505050506040513d601f19601f8201168201806040525081019061122191906140ac565b806113085750336001600160a01b0316816001600160a01b0316627ffb786040518163ffffffff1660e01b8152600401602060405180830381865afa15801561126e573d6000803e3d6000fd5b505050506040513d601f19601f8201168201806040525081019061129291906140c9565b6040516331a9108f60e11b8152600160048201526001600160a01b039190911690636352211e90602401602060405180830381865afa1580156112d9573d6000803e3d6000fd5b505050506040513d601f19601f820116820180604052508101906112fd91906140c9565b6001600160a01b0316145b6113245760405162461bcd60e51b81526004016106e9906140e6565b60008381526002602052604090205460ff161561138057600083815260026020526040808220805460ff1916905551339185917f03da9148e1de78fba22de63c573465562ebf6ef878a1d3ea83790a560229984c9190a3505050565b600083815260026020526040808220805460ff1916600117905551339185917fc7344c45124818d1d3a4c24ccb9b86d8b88d3bd05209b2a42b494cb32a5035299190a35b505050565b6113d16130e4565b60005b8181101561140f576113fd8383838181106113f1576113f1613fec565b9050602002013561313e565b806114078161412f565b9150506113d4565b5061141a6001600055565b5050565b6114266130e4565b60005b8181101561140f5761145283838381811061144657611446613fec565b9050602002013561323e565b8061145c8161412f565b915050611429565b600081815260026020819052604082208054600182015460048301549383015460058401546003909401546001600160a01b03610100850481169793811696959216939192909160ff1690808080806114bc8d612c23565b94506114c78d612701565b60009d8e5260026020526040909d2060068101546007820154600c909201549d9f9c9e9b9d9a9c999b989a9799969897909691955060ff169350915050565b600085815260026020526040902054859060ff166115365760405162461bcd60e51b81526004016106e99061414a565b61153e6130e4565b8461155b5760405162461bcd60e51b81526004016106e990614195565b81158061157b5750611577612710670de0b6b3a7640000614066565b8210155b6115c05760405162461bcd60e51b8152602060048201526016602482015275436f6e73756d655377617046656520746f6f206c6f7760501b60448201526064016106e9565b6706f05b59d3b200008211156116125760405162461bcd60e51b8152602060048201526017602482015276086dedce6eadacaa6eec2e08ccaca40e8dede40d0d2ced604b1b60448201526064016106e9565b6000868152600260205260409020600c015461010090046001600160a01b031615611675576000868152600260205260409020600c015461010090046001600160a01b031633146116755760405162461bcd60e51b81526004016106e9906141dd565b6040805160808101825260008082526020820181905291810182905260608101919091526001600160a01b0384166116ac57600092505b6116b7878785612a74565b6060850152604084015260208301528082528511156117275760405162461bcd60e51b815260206004820152602660248201527f46697865645261746545786368616e67653a20546f6f20666577206261736520604482015265746f6b656e7360d01b60648201526084016106e9565b602080820151600089815260029092526040909120600b0154611749916132ca565b60008881526002602052604090819020600b810192909255820151600a90910154611773916132ca565b60026000898152602001908152602001600020600a018190555060006117c082606001516117ba84604001516117ba866020015187600001516132ca90919063ffffffff16565b906132ca565b6000898152600260205260409020600101549091506117ea906001600160a01b031633308a6132dd565b60008881526002602052604090206006015461180690886132ca565b600089815260026020526040902060068101919091556007015481111561188c57600088815260026020819052604090912090810154905461185b916001600160a01b039081169161010090041630846132dd565b815160008981526002602081905260409091200154611887916001600160a01b0390911690339061342b565b6118dd565b6000888152600260205260409020600701546118a8908261348e565b6000898152600260208190526040909120600781019290925583519101546118dd916001600160a01b0390911690339061342b565b6001600160a01b038516158015906118f9575060008260600151115b1561198d5760608201516000898152600260208190526040909120015461192d916001600160a01b0390911690879061342b565b6000888152600260208190526040918290200154606084015191518a927f086a8edf7ac99098be3ce56ba76ae3e5a1e212fed5f803fc3167990fa03079b992611984928a926001600160a01b039092169190614088565b60405180910390a25b815160008981526002602081815260409283902090910154828601518287015160608089015186519788529487018e90526001600160a01b039093169486019490945290840152608083019190915260a0820152339089907f7b072645ce5b6a2fc627a544edee544b786747cafd1bb8f0e3238aa5f2e806469060c0015b60405180910390a35050611a1f6001600055565b505050505050565b611a2f6130e4565b611a388161313e565b611a426001600055565b50565b600082815260026020526040908190206001015490516396fb3eaf60e01b815233600482015283916001600160a01b03169081906396fb3eaf90602401602060405180830381865afa158015611a9f573d6000803e3d6000fd5b505050506040513d601f19601f82011682018060405250810190611ac391906140ac565b80611baa5750336001600160a01b0316816001600160a01b0316627ffb786040518163ffffffff1660e01b8152600401602060405180830381865afa158015611b10573d6000803e3d6000fd5b505050506040513d601f19601f82011682018060405250810190611b3491906140c9565b6040516331a9108f60e11b8152600160048201526001600160a01b039190911690636352211e90602401602060405180830381865afa158015611b7b573d6000803e3d6000fd5b505050506040513d601f19601f82011682018060405250810190611b9f91906140c9565b6001600160a01b0316145b611bc65760405162461bcd60e51b81526004016106e9906140e6565b600084815260026020526040808220600c018054610100600160a81b0319166101006001600160a01b038816908102919091179091559051909186917fcc1b4af8292e6b938f6743c78a62317c9a2d60e0d46b77776a027e53ce617c0c9190a350505050565b600082815260026020526040908190206001015490516396fb3eaf60e01b815233600482015283916001600160a01b03169081906396fb3eaf90602401602060405180830381865afa158015611c86573d6000803e3d6000fd5b505050506040513d601f19601f82011682018060405250810190611caa91906140ac565b80611d915750336001600160a01b0316816001600160a01b0316627ffb786040518163ffffffff1660e01b8152600401602060405180830381865afa158015611cf7573d6000803e3d6000fd5b505050506040513d601f19601f82011682018060405250810190611d1b91906140c9565b6040516331a9108f60e11b8152600160048201526001600160a01b039190911690636352211e90602401602060405180830381865afa158015611d62573d6000803e3d6000fd5b505050506040513d601f19601f82011682018060405250810190611d8691906140c9565b6001600160a01b0316145b611dad5760405162461bcd60e51b81526004016106e9906140e6565b6402540be400831015611dd25760405162461bcd60e51b81526004016106e990614002565b6000848152600260205260409081902060030184905551339085907fe50f9919fdc524004a4ee0cb934f4734f144bec0713a52e5483b753f5de0f08c90611e1c9087815260200190565b60405180910390a350505050565b600085815260026020526040902054859060ff16611e5a5760405162461bcd60e51b81526004016106e99061414a565b611e626130e4565b84611e7f5760405162461bcd60e51b81526004016106e990614195565b811580611e9f5750611e9b612710670de0b6b3a7640000614066565b8210155b611ee45760405162461bcd60e51b8152602060048201526016602482015275436f6e73756d655377617046656520746f6f206c6f7760501b60448201526064016106e9565b6706f05b59d3b20000821115611f365760405162461bcd60e51b8152602060048201526017602482015276086dedce6eadacaa6eec2e08ccaca40e8dede40d0d2ced604b1b60448201526064016106e9565b6000868152600260205260409020600c015461010090046001600160a01b031615611f99576000868152600260205260409020600c015461010090046001600160a01b03163314611f995760405162461bcd60e51b81526004016106e9906141dd565b6001600160a01b038316611fac57600091505b6000604051806080016040528060008152602001600081526020016000815260200160008152509050611fe0878785612f35565b6060850152604084015260208301528082528510156120515760405162461bcd60e51b815260206004820152602760248201527f46697865645261746545786368616e67653a20546f6f206d616e79206261736560448201526620746f6b656e7360c81b60648201526084016106e9565b602080820151600089815260029092526040909120600b0154612073916132ca565b60008881526002602052604090819020600b810192909255820151600a9091015461209d916132ca565b6000888152600260208190526040909120600a810192909255015481516120d1916001600160a01b031690339030906132dd565b600061210482606001516120fe84604001516120fe8660200151876000015161348e90919063ffffffff16565b9061348e565b60008981526002602052604090206007015490915061212390826132ca565b6000898152600260205260409020600781019190915560060154871115612291576000888152600260205260409020600c015460ff1680156121dc5750600088815260026020526040908190206001015490516355138f0d60e11b81523060048201526001600160a01b039091169063aa271e1a90602401602060405180830381865afa1580156121b8573d6000803e3d6000fd5b505050506040513d601f19601f820116820180604052508101906121dc91906140ac565b1561225a57600088815260026020526040908190206001015490516340c10f1960e01b8152336004820152602481018990526001600160a01b03909116906340c10f1990604401600060405180830381600087803b15801561223d57600080fd5b505af1158015612251573d6000803e3d6000fd5b505050506122db565b60008881526002602052604090206001810154905461228c916001600160a01b0390811691610100900416338a6132dd565b6122db565b6000888152600260205260409020600601546122ad908861348e565b60008981526002602052604090206006810191909155600101546122db906001600160a01b0316338961342b565b6001600160a01b038516158015906122f7575060008260600151115b1561238b5760608201516000898152600260208190526040909120015461232b916001600160a01b0390911690879061342b565b6000888152600260208190526040918290200154606084015191518a927f086a8edf7ac99098be3ce56ba76ae3e5a1e212fed5f803fc3167990fa03079b992612382928a926001600160a01b039092169190614088565b60405180910390a25b815160008981526002602090815260409182902060010154828601518287015160608089015186519788529487018e90526001600160a01b039093169486019490945290840152608083019190915260a0820152339089907f7b072645ce5b6a2fc627a544edee544b786747cafd1bb8f0e3238aa5f2e806469060c001611a0b565b612421612710670de0b6b3a7640000614066565b81565b600082815260026020526040908190206001015490516396fb3eaf60e01b815233600482015283916001600160a01b03169081906396fb3eaf90602401602060405180830381865afa15801561247e573d6000803e3d6000fd5b505050506040513d601f19601f820116820180604052508101906124a291906140ac565b806125895750336001600160a01b0316816001600160a01b0316627ffb786040518163ffffffff1660e01b8152600401602060405180830381865afa1580156124ef573d6000803e3d6000fd5b505050506040513d601f19601f8201168201806040525081019061251391906140c9565b6040516331a9108f60e11b8152600160048201526001600160a01b039190911690636352211e90602401602060405180830381865afa15801561255a573d6000803e3d6000fd5b505050506040513d601f19601f8201168201806040525081019061257e91906140c9565b6001600160a01b0316145b6125a55760405162461bcd60e51b81526004016106e9906140e6565b600084815260026020526040902080546001909101546125d7916001600160a01b03610100909104811691168561349a565b600085815260026020908152604091829020600c01805460ff191693151593909317909255518415158152339186917fe28e899e0f5d6fba0c8d73d1888083bcc62d4d9806d2e26fcf1f607c3ed52f539101611e1c565b6000828152600260205260409020600901546001600160a01b031633146126905760405162461bcd60e51b81526020600482015260166024820152753737ba1036b0b935b2ba2332b2a1b7b63632b1ba37b960511b60448201526064016106e9565b600082815260026020526040908190206009810180546001600160a01b0319166001600160a01b03851617905560080154905183917f1bf3af41af5ef4ea33bbeffb18acd246aae76d6f03bdb54916577c2e1ab03d52916126f5913391869190614088565b60405180910390a25050565b60008181526002602052604081205460ff1661271f57506000919050565b600082815260026020819052604080832091820154915490516370a0823160e01b81526001600160a01b03610100909204821660048201529116906370a0823190602401602060405180830381865afa158015612780573d6000803e3d6000fd5b505050506040513d601f19601f820116820180604052508101906127a49190614233565b60008481526002602081905260408083209182015491549051636eb1769f60e11b81526101009091046001600160a01b0390811660048301523060248301529394509192169063dd62ed3e90604401602060405180830381865afa158015612810573d6000803e3d6000fd5b505050506040513d601f19601f820116820180604052508101906128349190614233565b9050808210156128625760008481526002602052604090206007015461285b9083906132ca565b9250612882565b60008481526002602052604090206007015461287f9082906132ca565b92505b5050919050565b6000828152600260205260409020600901546001600160a01b031633146128eb5760405162461bcd60e51b81526020600482015260166024820152753737ba1036b0b935b2ba2332b2a1b7b63632b1ba37b960511b60448201526064016106e9565b80158061290b5750612907612710670de0b6b3a7640000614066565b8110155b6129495760405162461bcd60e51b815260206004820152600f60248201526e5377617046656520746f6f206c6f7760881b60448201526064016106e9565b6706f05b59d3b200008111156129945760405162461bcd60e51b815260206004820152601060248201526f0a6eec2e08ccaca40e8dede40d0d2ced60831b60448201526064016106e9565b600082815260026020526040908190206008810183905560090154905183917f1bf3af41af5ef4ea33bbeffb18acd246aae76d6f03bdb54916577c2e1ab03d52916126f59133916001600160a01b03909116908690614088565b6129f66130e4565b611a388161323e565b60015460405163b8421e2b60e01b81526001600160a01b038381166004830152600092169063b8421e2b90602401602060405180830381865afa158015612a4a573d6000803e3d6000fd5b505050506040513d601f19601f82011682018060405250810190612a6e9190614233565b92915050565b600083815260026020526040812054819081908190879060ff16612aaa5760405162461bcd60e51b81526004016106e99061414a565b6000612ab68989613632565b6040805160808101825260008082526020808301829052828401829052606083018290528d82526002908190529281209092015492935091612b00906001600160a01b03166129ff565b90508015612b2e57612b24670de0b6b3a7640000612b1e85846136a1565b906136ad565b6020830152612b36565b600060208301525b60008b81526002602052604090206008015415612b825760008b815260026020526040902060080154612b7890670de0b6b3a764000090612b1e9086906136a1565b6040830152612b8a565b600060408301525b8815612bb057612ba6670de0b6b3a7640000612b1e858c6136a1565b6060830152612bb8565b600060608301525b612bdf82606001516120fe84602001516120fe86604001518861348e90919063ffffffff16565b80835260208301516040840151606090940151919d909c50929a509850909650505050505050565b612c0f6130e4565b612c1982826136b9565b61141a6001600055565b60008181526002602052604081205460ff16612c4157506000919050565b6000828152600260205260409020600c015460ff168015612cd95750600082815260026020526040908190206001015490516355138f0d60e11b81523060048201526001600160a01b039091169063aa271e1a90602401602060405180830381865afa158015612cb5573d6000803e3d6000fd5b505050506040513d601f19601f82011682018060405250810190612cd991906140ac565b15612dde576000828152600260209081526040918290206001015482516318160ddd60e01b815292516001600160a01b03909116926318160ddd9260048083019391928290030181865afa158015612d35573d6000803e3d6000fd5b505050506040513d601f19601f82011682018060405250810190612d599190614233565b600083815260026020908152604091829020600101548251631aa93a7560e11b815292516001600160a01b039091169263355274ea9260048083019391928290030181865afa158015612db0573d6000803e3d6000fd5b505050506040513d601f19601f82011682018060405250810190612dd49190614233565b612a6e919061424c565b6000828152600260205260408082206001810154905491516370a0823160e01b81526101009092046001600160a01b03908116600484015216906370a0823190602401602060405180830381865afa158015612e3e573d6000803e3d6000fd5b505050506040513d601f19601f82011682018060405250810190612e629190614233565b600084815260026020526040808220600181015490549151636eb1769f60e11b81526001600160a01b0361010090930483166004820152306024820152939450919291169063dd62ed3e90604401602060405180830381865afa158015612ecd573d6000803e3d6000fd5b505050506040513d601f19601f82011682018060405250810190612ef19190614233565b905080821015612f185760008481526002602052604090206006015461285b9083906132ca565b60008481526002602052604090206006015461287f9082906132ca565b600083815260026020526040812054819081908190879060ff16612f6b5760405162461bcd60e51b81526004016106e99061414a565b6000612f778989613632565b6040805160808101825260008082526020808301829052828401829052606083018290528d82526002908190529281209092015492935091612fc1906001600160a01b03166129ff565b90508015612fe957612fdf670de0b6b3a7640000612b1e85846136a1565b6020830152612ff1565b600060208301525b60008b8152600260205260409020600801541561303d5760008b81526002602052604090206008015461303390670de0b6b3a764000090612b1e9086906136a1565b6040830152613045565b600060408301525b881561306b57613061670de0b6b3a7640000612b1e858c6136a1565b6060830152613073565b600060608301525b612bdf82606001516117ba84602001516117ba8660400151886132ca90919063ffffffff16565b604080516001600160a01b03938416602080830191909152929093168382015280518084038201815260609093019052815191012090565b6130da6130e4565b612c198282613832565b600260005414156131375760405162461bcd60e51b815260206004820152601f60248201527f5265656e7472616e637947756172643a207265656e7472616e742063616c6c0060448201526064016106e9565b6002600055565b6000818152600260209081526040808320600b0180549390556001548151631a81876d60e01b815291516131e6936001600160a01b0390921692631a81876d9260048083019391928290030181865afa15801561319f573d6000803e3d6000fd5b505050506040513d601f19601f820116820180604052508101906131c391906140c9565b600084815260026020819052604090912001546001600160a01b0316908361342b565b6000828152600260208181526040928390209091015491518381526001600160a01b039092169184917f457b44fd47c33fc65bfbd58d0202ad97fbed1bbc9881f56441d05fe9ebd58acf910160405180910390a35050565b6000818152600260208181526040808420600a810180549590559092015491518381526001600160a01b039092169184917f192a3cd95e40313e0e12c28b398e31633936e38d134419161f883c8d64079055910160405180910390a36000828152600260208190526040909120600981015491015461141a916001600160a01b0391821691168361342b565b60006132d68284614263565b9392505050565b6040516370a0823160e01b81526001600160a01b038381166004830152600091908616906370a0823190602401602060405180830381865afa158015613327573d6000803e3d6000fd5b505050506040513d601f19601f8201168201806040525081019061334b9190614233565b90506133626001600160a01b0386168585856139a3565b61336c81836132ca565b6040516370a0823160e01b81526001600160a01b0385811660048301528716906370a0823190602401602060405180830381865afa1580156133b2573d6000803e3d6000fd5b505050506040513d601f19601f820116820180604052508101906133d69190614233565b10156134245760405162461bcd60e51b815260206004820152601a60248201527f5472616e7366657220616d6f756e7420697320746f6f206c6f7700000000000060448201526064016106e9565b5050505050565b6040516001600160a01b0383166024820152604481018290526113c490849063a9059cbb60e01b906064015b60408051601f198184030181529190526020810180516001600160e01b03166001600160e01b0319909316929092179091526139ca565b60006132d6828461424c565b6000816134a9575060006132d6565b6000836001600160a01b0316627ffb786040518163ffffffff1660e01b8152600401602060405180830381865afa1580156134e8573d6000803e3d6000fd5b505050506040513d601f19601f8201168201806040525081019061350c91906140c9565b60405163160a792560e01b81526001600160a01b03878116600483015291925060009183169063160a792590602401608060405180830381865afa158015613558573d6000803e3d6000fd5b505050506040513d601f19601f8201168201806040525081019061357c919061427b565b80519091501515600114806135975750602081015115156001145b8061361657506040516331a9108f60e11b8152600160048201526001600160a01b038088169190841690636352211e90602401602060405180830381865afa1580156135e7573d6000803e3d6000fd5b505050506040513d601f19601f8201168201806040525081019061360b91906140c9565b6001600160a01b0316145b15613626576001925050506132d6565b50600095945050505050565b6000828152600260205260408120600401546132d690670de0b6b3a764000090612b1e9061366190600a6143e4565b600087815260026020526040902060050154612b1e9061368290600a6143e4565b60008981526002602052604090206003015461369f9089906136a1565b905b60006132d682846143f0565b60006132d68284614066565b60008281526002602052604090206006015481111561370c5760405162461bcd60e51b815260206004820152600f60248201526e082dadeeadce840e8dede40d0d2ced608b1b60448201526064016106e9565b6000828152600260209081526040808320600101548151631c90f85d60e31b815291516001600160a01b039091169263e487c2e892600480820193918290030181865afa158015613761573d6000803e3d6000fd5b505050506040513d601f19601f8201168201806040525081019061378591906140c9565b6000848152600260205260409020600601549091506137a4908361348e565b60008481526002602052604090819020600681019290925560019091015490516001600160a01b039182169183169085907fecc75f4464886bee0a1c5eae61c0cb4b99c64c5e9cdebe3696217d266f8b1636906138049087815260200190565b60405180910390a46000838152600260205260409020600101546113c4906001600160a01b0316828461342b565b6000828152600260205260409020600701548111156138855760405162461bcd60e51b815260206004820152600f60248201526e082dadeeadce840e8dede40d0d2ced608b1b60448201526064016106e9565b6000828152600260209081526040808320600101548151631c90f85d60e31b815291516001600160a01b039091169263e487c2e892600480820193918290030181865afa1580156138da573d6000803e3d6000fd5b505050506040513d601f19601f820116820180604052508101906138fe91906140c9565b60008481526002602052604090206007015490915061391d908361348e565b600084815260026020818152604092839020600781019490945592015490518481526001600160a01b03918216929184169186917fecc75f4464886bee0a1c5eae61c0cb4b99c64c5e9cdebe3696217d266f8b1636910160405180910390a4600083815260026020819052604090912001546113c4906001600160a01b0316828461342b565b6139c4846323b872dd60e01b85858560405160240161345793929190614088565b50505050565b6000613a1f826040518060400160405280602081526020017f5361666545524332303a206c6f772d6c6576656c2063616c6c206661696c6564815250856001600160a01b0316613a9c9092919063ffffffff16565b8051909150156113c45780806020019051810190613a3d91906140ac565b6113c45760405162461bcd60e51b815260206004820152602a60248201527f5361666545524332303a204552433230206f7065726174696f6e20646964206e6044820152691bdd081cdd58d8d9595960b21b60648201526084016106e9565b6060613aab8484600085613ab3565b949350505050565b606082471015613b145760405162461bcd60e51b815260206004820152602660248201527f416464726573733a20696e73756666696369656e742062616c616e636520666f6044820152651c8818d85b1b60d21b60648201526084016106e9565b843b613b625760405162461bcd60e51b815260206004820152601d60248201527f416464726573733a2063616c6c20746f206e6f6e2d636f6e747261637400000060448201526064016106e9565b600080866001600160a01b03168587604051613b7e919061443b565b60006040518083038185875af1925050503d8060008114613bbb576040519150601f19603f3d011682016040523d82523d6000602084013e613bc0565b606091505b5091509150613bd0828286613bdb565b979650505050505050565b60608315613bea5750816132d6565b825115613bfa5782518084602001fd5b8160405162461bcd60e51b81526004016106e99190614457565b6001600160a01b0381168114611a4257600080fd5b634e487b7160e01b600052604160045260246000fd5b604051601f8201601f1916810167ffffffffffffffff81118282101715613c6857613c68613c29565b604052919050565b600067ffffffffffffffff821115613c8a57613c8a613c29565b5060051b60200190565b600082601f830112613ca557600080fd5b81356020613cba613cb583613c70565b613c3f565b82815260059290921b84018101918181019086841115613cd957600080fd5b8286015b84811015613cf45780358352918301918301613cdd565b509695505050505050565b600080600060608486031215613d1457600080fd5b8335613d1f81613c14565b925060208481013567ffffffffffffffff80821115613d3d57600080fd5b818701915087601f830112613d5157600080fd5b8135613d5f613cb582613c70565b81815260059190911b8301840190848101908a831115613d7e57600080fd5b938501935b82851015613da5578435613d9681613c14565b82529385019390850190613d83565b965050506040870135925080831115613dbd57600080fd5b5050613dcb86828701613c94565b9150509250925092565b600060208284031215613de757600080fd5b5035919050565b600060208284031215613e0057600080fd5b81356132d681613c14565b6020808252825182820181905260009190848201906040850190845b81811015613e4357835183529284019291840191600101613e27565b50909695505050505050565b60008060208385031215613e6257600080fd5b823567ffffffffffffffff80821115613e7a57600080fd5b818501915085601f830112613e8e57600080fd5b813581811115613e9d57600080fd5b8660208260051b8501011115613eb257600080fd5b60209290920196919550909350505050565b600080600080600060a08688031215613edc57600080fd5b8535945060208601359350604086013592506060860135613efc81613c14565b949793965091946080013592915050565b60008060408385031215613f2057600080fd5b823591506020830135613f3281613c14565b809150509250929050565b60008060408385031215613f5057600080fd5b50508035926020909101359150565b8015158114611a4257600080fd5b60008060408385031215613f8057600080fd5b823591506020830135613f3281613f5f565b600080600060608486031215613fa757600080fd5b505081359360208301359350604090920135919050565b60008060408385031215613fd157600080fd5b8235613fdc81613c14565b91506020830135613f3281613c14565b634e487b7160e01b600052603260045260246000fd5b6020808252602e908201527f46697865645261746545786368616e67653a20496e76616c696420657863686160408201526d6e676520726174652076616c756560901b606082015260800190565b634e487b7160e01b600052601160045260246000fd5b60008261408357634e487b7160e01b600052601260045260246000fd5b500490565b6001600160a01b039384168152919092166020820152604081019190915260600190565b6000602082840312156140be57600080fd5b81516132d681613f5f565b6000602082840312156140db57600080fd5b81516132d681613c14565b60208082526029908201527f46697865645261746545786368616e67653a20696e76616c69642065786368616040820152683733b29037bbb732b960b91b606082015260800190565b600060001982141561414357614143614050565b5060010190565b6020808252602b908201527f46697865645261746545786368616e67653a2045786368616e676520646f657360408201526a206e6f742065786973742160a81b606082015260800190565b60208082526028908201527f46697865645261746545786368616e67653a207a65726f2064617461746f6b656040820152671b88185b5bdd5b9d60c21b606082015260800190565b60208082526036908201527f46697865645261746545786368616e67653a205468697320616464726573732060408201527506973206e6f7420616c6c6f77656420746f20737761760541b606082015260800190565b60006020828403121561424557600080fd5b5051919050565b60008282101561425e5761425e614050565b500390565b6000821982111561427657614276614050565b500190565b60006080828403121561428d57600080fd5b6040516080810181811067ffffffffffffffff821117156142b0576142b0613c29565b60405282516142be81613f5f565b815260208301516142ce81613f5f565b602082015260408301516142e181613f5f565b604082015260608301516142f481613f5f565b60608201529392505050565b600181815b8085111561433b57816000190482111561432157614321614050565b8085161561432e57918102915b93841c9390800290614305565b509250929050565b60008261435257506001612a6e565b8161435f57506000612a6e565b8160018114614375576002811461437f5761439b565b6001915050612a6e565b60ff84111561439057614390614050565b50506001821b612a6e565b5060208310610133831016604e8410600b84101617156143be575081810a612a6e565b6143c88383614300565b80600019048211156143dc576143dc614050565b029392505050565b60006132d68383614343565b600081600019048311821515161561440a5761440a614050565b500290565b60005b8381101561442a578181015183820152602001614412565b838111156139c45750506000910152565b6000825161444d81846020870161440f565b9190910192915050565b602081526000825180602084015261447681604085016020870161440f565b601f01601f1916919091016040019291505056fea2646970667358221220e3157f3486d8d00c099d4c9438c81fe7ae7562d9f7708b036d4a23eeac3a0dc764736f6c634300080c0033",
  "linkReferences": {},
  "deployedLinkReferences": {}
}